:080000000C9451000C94000067
:100008000C9400000C9400000C9400000C94000068
:100018000C9400000C9400000C9400000C94000058
:100028000C9400000C9400000C9400000C94C30085
:100038000C9400000C9400000C9400000C94000038
:100048000C9400000C9400000C948B000C9400009D
:100058000C94AB000C9400000C9400000C9400006D
:100068000C9400000C9400000C9400000C94000008
:100078000C9400001027E80364000A000100001037
:1000880000011000010001002D4E414E00494E466E
:100098000000010010028E000000F894EE27EFBB6C
:1000A800F1E0F5BFE5BFF8E1A895A4B7A77FA4BF25
:1000B800F0936000E09360008DE0A2E0BB27ED9331
:1000C8008A95E9F780E094E0A0E0B1E0ED9301972C
:1000D800E9F7EAE9F0E085919591009761F0A5913B
:1000E800B59105901590BF01F00105900D9201970B
:1000F800E1F7FB01F0CFE0E0EEBBEABDEBBDEFEFCF
:10010800EDBFE4E0EEBFC0E0D2E00C94E300EA9378
:10011800FA93EFB7EA931A930A931091C0000091EB
:10012800C600E12FEC7181F4E32D3394F0E0E05048
:10013800FE4F0083E8E0E31509F433245394E8E024
:10014800E51511F45524F09A0991199113C0EA9311
:10015800FA93EFB7EA93662069F06A94E72D7394EF
:10016800F0E0E85FFD4FE081E093C600E8E0E715C6
:1001780009F47724E991EFBFF991E99118955E9B0D
:1001880002C05E9801C05E9A18950E946501E0EC75
:100198000E946D01E0E60E946D01E0E309C00E9443
:1001A8006501E0E30E946D01E0E60E946D01E0EC6C
:1001B800E8B9A881B9810E9472012296089500E0E9
:1001C80010E025E030E014D04D9904C001E010E0C3
:1001D80021503040E1E0F0E0E017F10721F4A5E01C
:1001E800B0E0D3DF03C0A5E0B0E0D9DFEDCFFFCFAB
:1001F800E0E8E0936100E0E0E0936100E2B9E1B992
:10020800E5B9E4B9E8B9EFEFE7B9E0E2EBB9E0E561
:10021800EAB9E0E0E4BDE5BDE6BDE7BDE8BDE093D1
:100228008000EDE0E0938100E0E0E0938500E0935A
:100238008400E0938700E0938600ECE4E093890073
:10024800E0E4E0938800E0E0E0938B00E0938A002C
:10025800E093B600E093B000E093B100E093B20001
:10026800E093B300E093B400E0936900EDBBE09342
:100278006800E0936E00E2E0E0936F00E0E0E09356
:100288007000E093C000E8EDE093C100E6E0E09381
:10029800C200E0E0E093C500E1E8E093C400E0E0DC
:1002A800E093C900E0E8E0BFE0E0E0937B00E09382
:1002B8007F00A895E8E1E0936000E8E0E093600043
:1002C8000895BA93AA93E0E9E8B9A881B9810C9492
:1002D8007201E8B9A881B9810C947201109639F0BD
:1002E80088E893E10197F1F7A8951197C9F7089560
:00000001FF
